13600000         207453543000103433923              0110370000000952796 MOTTA E ETCHEPARE LTDA ME     UNICRED FLORIANOPOLIS                   21109201706210900054108500000         CONSOLIDADO                                  000            
13600011C2041044 207453543000103433923              0110370000000952796 MOTTA E ETCHEPARE LTDA ME                                             RUA TENENTE SILVEIRA          00315               FLORIANOPOLIS       88010301SC                  
1360001300001A0230180010423740000000093866 CAROLINA DA MOTTA BERGLER     18                  08092017BRL000000000000000000000000010000                    08092017000000000000000                                                    000        
1360001300002B   100008163671912RUA URUGUAI                   00000               CENTRO         ITAJAI              88302201SC08092017000000000010000000000000000000000000000000000000000000000000000000000000000                              
1360001300001Z                                                                716111311016031890179                                                                                                                                             
13600015         000003000000000000010000                                                                                                                                                                                                       
13600009         000001000005000001                                                                                                                                                                                                             
