13600000         207453543000103433923              0110370000000952796 MOTTA E ETCHEPARE LTDA ME     UNICRED FLORIANOPOLIS                   21209201706275300055608500000         CONSOLIDADO                                  000            
13600011C2041044 207453543000103433923              0110370000000952796 MOTTA E ETCHEPARE LTDA ME                                             RUA TENENTE SILVEIRA          00315               FLORIANOPOLIS       88010301SC                  
1360001300001A0230180010423740000000093866 CARLOS AUGUSTO AMORIM DA MOTTA19                  11092017BRL000000000000000000000000048500                    11092017000000000000000                                                    000        
1360001300002B   100000419980903AVENIDA TROMPOWSKY            00172ENDERECO COMERCCENTRO         FLORIANOPOLIS       88015300SC11092017000000000048500000000000000000000000000000000000000000000000000000000000000                              
1360001300001Z                                                                816111311016031820279                                                                                                                                             
13600015         000003000000000000048500                                                                                                                                                                                                       
13600009         000001000005000001                                                                                                                                                                                                             
