13600000         207453543000103433923              0110370000000952796 MOTTA E ETCHEPARE LTDA ME     UNICRED FLORIANOPOLIS                   21108201706221200028908500000         CONSOLIDADO                                  000            
13600011C2003044 207453543000103433923              0110370000000952796 MOTTA E ETCHEPARE LTDA ME                                             RUA TENENTE SILVEIRA          00315               FLORIANOPOLIS       88010301SC                  
1360001300001A0230180010423740000000093866 CARLOS AUGUSTO AMORIM DA MOTTA16                  10082017BRL000000000000000000000000010000                    10082017000000000000000                                                    000        
1360001300002B   100000419980903AVENIDA TROMPOWSKY            00172ENDERECO COMERCCENTRO         FLORIANOPOLIS       88015300SC10082017000000000010000000000000000000000000000000000000000000000000000000000000000                              
1360001300001Z                                                                612111311016931810278                                                                                                                                             
13600015         000003000000000000010000                                                                                                                                                                                                       
13600009         000001000005000001                                                                                                                                                                                                             
