13600000         207453543000103433923              0110370000000952796 MOTTA E ETCHEPARE LTDA ME     UNICRED FLORIANOPOLIS                   20408201706173000024808500000         CONSOLIDADO                                  000            
13600011C2003044 207453543000103433923              0110370000000952796 MOTTA E ETCHEPARE LTDA ME                                             RUA TENENTE SILVEIRA          00315               FLORIANOPOLIS       88010301SC                  
1360001300001A0230181360110300000000947083 CARLOS AUGUSTO AMORIM DA MOTTA13                  03082017BRL000000000000000000000000015520                    03082017000000000000000                                                    000        
1360001300002B   100000419980903AVENIDA TROMPOWSKY            00172ENDERECO COMERCCENTRO         FLORIANOPOLIS       88015300SC03082017000000000015520000000000000000000000000000000000000000000000000000000000000                              
1360001300001Z                                                                711111311016931840178                                                                                                                                             
13600015         000003000000000000015520                                                                                                                                                                                                       
13600009         000001000005000001                                                                                                                                                                                                             
