02RETORNO01COBRANCA       00000000000000433923COOPERATIVA DE ECON E CRED MUT237BRADESCO       1909170160000001572                                                                                                                                                                                                                                                                          200917         000001
102740645020001120000009075060952796600000063860              000000000000006386010000000000000000000000000902190917000006386000000000000000638601290917000000033333323704424  000000000000000000000000000000000000000000000000000000000000000000000000000000000000000000000000000000000000000000000                          0000000000                                                                  000002
102740645020001120000009075060952796600000063861              0000000000000063861P000000000000000000000000090219091700000638610000000000000063861P291017000000033333323704424  000000000000000000000000000000000000000000000000000000000000000000000000000000000000000000000000000000000000000000000                          0000000000                                                                  000003
102740645020001120000009075060952796600000064085              000000000000006408510000000000000000000000000902190917000006408500000000000000640851021017000000001700023702397  000000000000000000000000000000000000000000000000000000000000000000000000000000000000000000000000000000000000000000000                          0000000000                                                                  000004
102740645020001120000009075060952796600000064086              0000000000000064086P000000000000000000000000090219091700000640860000000000000064086P021117000000001700023702397  000000000000000000000000000000000000000000000000000000000000000000000000000000000000000000000000000000000000000000000                          0000000000                                                                  000005
102740645020001120000009075060952796600000064087              000000000000006408780000000000000000000000000902190917000006408700000000000000640878021217000000001700023702397  000000000000000000000000000000000000000000000000000000000000000000000000000000000000000000000000000000000000000000000                          0000000000                                                                  000006
102740645020001120000009075060952796600000064088              000000000000006408860000000000000000000000000902190917000006408800000000000000640886020118000000001700023702397  000000000000000000000000000000000000000000000000000000000000000000000000000000000000000000000000000000000000000000000                          0000000000                                                                  000007
102740645020001120000009075060952796600000064089              000000000000006408940000000000000000000000000902190917000006408900000000000000640894020218000000001700023702397  000000000000000000000000000000000000000000000000000000000000000000000000000000000000000000000000000000000000000000000                          0000000000                                                                  000008
102740645020001120000009075060952796600000064090              000000000000006409080000000000000000000000000902190917000006409000000000000000640908020318000000001700023702397  000000000000000000000000000000000000000000000000000000000000000000000000000000000000000000000000000000000000000000000                          0000000000                                                                  000009
102740645020001120000009075060952796600000064091              000000000000006409160000000000000000000000000902190917000006409100000000000000640916020418000000001700023702397  000000000000000000000000000000000000000000000000000000000000000000000000000000000000000000000000000000000000000000000                          0000000000                                                                  000010
102740645020001120000009075060952796600000064092              000000000000006409240000000000000000000000000902190917000006409200000000000000640924020518000000001700023702397  000000000000000000000000000000000000000000000000000000000000000000000000000000000000000000000000000000000000000000000                          0000000000                                                                  000011
102740645020001120000009075060952796600000064093              000000000000006409320000000000000000000000000902190917000006409300000000000000640932020618000000001700023702397  000000000000000000000000000000000000000000000000000000000000000000000000000000000000000000000000000000000000000000000                          0000000000                                                                  000012
102740645020001120000009075060952796600000064094              000000000000006409400000000000000000000000000902190917000006409400000000000000640940020718000000001700023702397  000000000000000000000000000000000000000000000000000000000000000000000000000000000000000000000000000000000000000000000                          0000000000                                                                  000013
102740645020001120000009075060952796600000064095              000000000000006409590000000000000000000000000902190917000006409500000000000000640959020818000000001700023702397  000000000000000000000000000000000000000000000000000000000000000000000000000000000000000000000000000000000000000000000                          0000000000                                                                  000014
102740645020001120000009075060952796600000064096              000000000000006409670000000000000000000000000902190917000006409600000000000000640967020918000000001700023702397  000000000000000000000000000000000000000000000000000000000000000000000000000000000000000000000000000000000000000000000                          0000000000                                                                  000015
102740645020001120000009075060952796600000064097              000000000000006409750000000000000000000000000902190917000006409700000000000000640975021018000000001700023702397  000000000000000000000000000000000000000000000000000000000000000000000000000000000000000000000000000000000000000000000                          0000000000                                                                  000016
102740645020001120000009075060952796600000064098              000000000000006409830000000000000000000000000902190917000006409800000000000000640983021118000000001700023702397  000000000000000000000000000000000000000000000000000000000000000000000000000000000000000000000000000000000000000000000                          0000000000                                                                  000017
102740645020001120000009075060952796600000064099              000000000000006409910000000000000000000000000902190917000006409900000000000000640991021218000000001700023702397  000000000000000000000000000000000000000000000000000000000000000000000000000000000000000000000000000000000000000000000                          0000000000                                                                  000018
102740645020001120000009075060952796600000064100              000000000000006410090000000000000000000000000902190917000006410000000000000000641009020119000000001700023702397  000000000000000000000000000000000000000000000000000000000000000000000000000000000000000000000000000000000000000000000                          0000000000                                                                  000019
102740645020001120000009075060952796600000064101              000000000000006410170000000000000000000000000902190917000006410100000000000000641017020219000000001700023702397  000000000000000000000000000000000000000000000000000000000000000000000000000000000000000000000000000000000000000000000                          0000000000                                                                  000020
102740645020001120000009075060952796600000064102              000000000000006410250000000000000000000000000902190917000006410200000000000000641025020319000000001700023702397  000000000000000000000000000000000000000000000000000000000000000000000000000000000000000000000000000000000000000000000                          0000000000                                                                  000021
102740645020001120000009075060952796600000064103              000000000000006410330000000000000000000000000902190917000006410300000000000000641033020419000000001700023702397  000000000000000000000000000000000000000000000000000000000000000000000000000000000000000000000000000000000000000000000                          0000000000                                                                  000022
102740645020001120000009075060952796600000064104              000000000000006410410000000000000000000000000902190917000006410400000000000000641041020519000000001700023702397  000000000000000000000000000000000000000000000000000000000000000000000000000000000000000000000000000000000000000000000                          0000000000                                                                  000023
102740645020001120000009075060952796600000064105              0000000000000064105P000000000000000000000000090219091700000641050000000000000064105P020619000000001700023702397  000000000000000000000000000000000000000000000000000000000000000000000000000000000000000000000000000000000000000000000                          0000000000                                                                  000024
102740645020001120000009075060952796600000064106              000000000000006410680000000000000000000000000902190917000006410600000000000000641068020719000000001700023702397  000000000000000000000000000000000000000000000000000000000000000000000000000000000000000000000000000000000000000000000                          0000000000                                                                  000025
102740645020001120000009075060952796600000064107              000000000000006410760000000000000000000000000902190917000006410700000000000000641076020819000000001700023702397  000000000000000000000000000000000000000000000000000000000000000000000000000000000000000000000000000000000000000000000                          0000000000                                                                  000026
102740645020001120000009075060952796600000064108              000000000000006410840000000000000000000000000902190917000006410800000000000000641084020919000000001700023702397  000000000000000000000000000000000000000000000000000000000000000000000000000000000000000000000000000000000000000000000                          0000000000                                                                  000027
102740645020001120000009075060952796600000064109              000000000000006410920000000000000000000000000902190917000006410900000000000000641092021019000000001700023702397  000000000000000000000000000000000000000000000000000000000000000000000000000000000000000000000000000000000000000000000                          0000000000                                                                  000028
102740645020001120000009075060952796600000064110              000000000000006411060000000000000000000000000902190917000006411000000000000000641106021119000000001700023702397  000000000000000000000000000000000000000000000000000000000000000000000000000000000000000000000000000000000000000000000                          0000000000                                                                  000029
102740645020001120000009075060952796600000064111              000000000000006411140000000000000000000000000902190917000006411100000000000000641114021219000000001700023702397  000000000000000000000000000000000000000000000000000000000000000000000000000000000000000000000000000000000000000000000                          0000000000                                                                  000030
102740645020001120000009075060952796600000064211              000000000000006421100000000000000000000000000902190917000006421100000000000000642110021017000000002500023704152  000000000000000000000000000000000000000000000000000000000000000000000000000000000000000000000000000000000000000000000                          0000000000                                                                  000031
102740645020001120000009075060952796600000064212              000000000000006421290000000000000000000000000902190917000006421200000000000000642129021117000000002500023704152  000000000000000000000000000000000000000000000000000000000000000000000000000000000000000000000000000000000000000000000                          0000000000                                                                  000032
102740645020001120000009075060952796600000064213              000000000000006421370000000000000000000000000902190917000006421300000000000000642137021217000000002500023704152  000000000000000000000000000000000000000000000000000000000000000000000000000000000000000000000000000000000000000000000                          0000000000                                                                  000033
102740645020001120000009075060952796600000064214              000000000000006421450000000000000000000000000902190917000006421400000000000000642145020118000000002500023704152  000000000000000000000000000000000000000000000000000000000000000000000000000000000000000000000000000000000000000000000                          0000000000                                                                  000034
102740645020001120000009075060952796600000064215              000000000000006421530000000000000000000000000902190917000006421500000000000000642153020218000000002500023704152  000000000000000000000000000000000000000000000000000000000000000000000000000000000000000000000000000000000000000000000                          0000000000                                                                  000035
102740645020001120000009075060952796600000064216              000000000000006421610000000000000000000000000902190917000006421600000000000000642161020318000000002500023704152  000000000000000000000000000000000000000000000000000000000000000000000000000000000000000000000000000000000000000000000                          0000000000                                                                  000036
102740645020001120000009075060952796600000064217              0000000000000064217P000000000000000000000000090219091700000642170000000000000064217P020418000000002500023704152  000000000000000000000000000000000000000000000000000000000000000000000000000000000000000000000000000000000000000000000                          0000000000                                                                  000037
102740645020001120000009075060952796600000064218              000000000000006421880000000000000000000000000902190917000006421800000000000000642188020518000000002500023704152  000000000000000000000000000000000000000000000000000000000000000000000000000000000000000000000000000000000000000000000                          0000000000                                                                  000038
102740645020001120000009075060952796600000064219              000000000000006421960000000000000000000000000902190917000006421900000000000000642196020618000000002500023704152  000000000000000000000000000000000000000000000000000000000000000000000000000000000000000000000000000000000000000000000                          0000000000                                                                  000039
102740645020001120000009075060952796600000064220              0000000000000064220P000000000000000000000000090219091700000642200000000000000064220P020718000000002500023704152  000000000000000000000000000000000000000000000000000000000000000000000000000000000000000000000000000000000000000000000                          0000000000                                                                  000040
102740645020001120000009075060952796600000064221              000000000000006422180000000000000000000000000902190917000006422100000000000000642218020818000000002500023704152  000000000000000000000000000000000000000000000000000000000000000000000000000000000000000000000000000000000000000000000                          0000000000                                                                  000041
102740645020001120000009075060952796600000064222              000000000000006422260000000000000000000000000902190917000006422200000000000000642226020918000000002500023704152  000000000000000000000000000000000000000000000000000000000000000000000000000000000000000000000000000000000000000000000                          0000000000                                                                  000042
102740645020001120000009075060952796600000064223              000000000000006422340000000000000000000000000902190917000006422300000000000000642234021018000000002500023704152  000000000000000000000000000000000000000000000000000000000000000000000000000000000000000000000000000000000000000000000                          0000000000                                                                  000043
102740645020001120000009075060952796600000064224              000000000000006422420000000000000000000000000902190917000006422400000000000000642242021118000000002500023704152  000000000000000000000000000000000000000000000000000000000000000000000000000000000000000000000000000000000000000000000                          0000000000                                                                  000044
102740645020001120000009075060952796600000064225              000000000000006422500000000000000000000000000902190917000006422500000000000000642250021218000000002500023704152  000000000000000000000000000000000000000000000000000000000000000000000000000000000000000000000000000000000000000000000                          0000000000                                                                  000045
102740645020001120000009075060952796600000064226              000000000000006422690000000000000000000000000902190917000006422600000000000000642269020119000000002500023704152  000000000000000000000000000000000000000000000000000000000000000000000000000000000000000000000000000000000000000000000                          0000000000                                                                  000046
102740645020001120000009075060952796600000064227              000000000000006422770000000000000000000000000902190917000006422700000000000000642277020219000000002500023704152  000000000000000000000000000000000000000000000000000000000000000000000000000000000000000000000000000000000000000000000                          0000000000                                                                  000047
102740645020001120000009075060952796600000064228              000000000000006422850000000000000000000000000902190917000006422800000000000000642285020319000000002500023704152  000000000000000000000000000000000000000000000000000000000000000000000000000000000000000000000000000000000000000000000                          0000000000                                                                  000048
102740645020001120000009075060952796600000064229              000000000000006422930000000000000000000000000902190917000006422900000000000000642293020419000000002500023704152  000000000000000000000000000000000000000000000000000000000000000000000000000000000000000000000000000000000000000000000                          0000000000                                                                  000049
102740645020001120000009075060952796600000064230              000000000000006423070000000000000000000000000902190917000006423000000000000000642307020519000000002500023704152  000000000000000000000000000000000000000000000000000000000000000000000000000000000000000000000000000000000000000000000                          0000000000                                                                  000050
102740645020001120000009075060952796600000064231              000000000000006423150000000000000000000000000902190917000006423100000000000000642315020619000000002500023704152  000000000000000000000000000000000000000000000000000000000000000000000000000000000000000000000000000000000000000000000                          0000000000                                                                  000051
102740645020001120000009075060952796600000064232              000000000000006423230000000000000000000000000902190917000006423200000000000000642323020719000000002500023704152  000000000000000000000000000000000000000000000000000000000000000000000000000000000000000000000000000000000000000000000                          0000000000                                                                  000052
102740645020001120000009075060952796600000064233              000000000000006423310000000000000000000000000902190917000006423300000000000000642331020819000000002500023704152  000000000000000000000000000000000000000000000000000000000000000000000000000000000000000000000000000000000000000000000                          0000000000                                                                  000053
102740645020001120000009075060952796600000064234              0000000000000064234P000000000000000000000000090219091700000642340000000000000064234P020919000000002500023704152  000000000000000000000000000000000000000000000000000000000000000000000000000000000000000000000000000000000000000000000                          0000000000                                                                  000054
102740645020001120000009075060952796600000064238              000000000000006423820000000000000000000000000902190917000006423800000000000000642382021017000000006000023700073  000000000000000000000000000000000000000000000000000000000000000000000000000000000000000000000000000000000000000000000                          0000000000                                                                  000055
102740645020001120000009075060952796600000064239              000000000000006423900000000000000000000000000902190917000006423900000000000000642390021117000000006000023700073  000000000000000000000000000000000000000000000000000000000000000000000000000000000000000000000000000000000000000000000                          0000000000                                                                  000056
102740645020001120000009075060952796600000064240              000000000000006424040000000000000000000000000902190917000006424000000000000000642404021217000000006000023700073  000000000000000000000000000000000000000000000000000000000000000000000000000000000000000000000000000000000000000000000                          0000000000                                                                  000057
102740645020001120000009075060952796600000064241              000000000000006424120000000000000000000000000902190917000006424100000000000000642412020118000000006000023700073  000000000000000000000000000000000000000000000000000000000000000000000000000000000000000000000000000000000000000000000                          0000000000                                                                  000058
102740645020001120000009075060952796600000064242              000000000000006424200000000000000000000000000902190917000006424200000000000000642420020218000000006000023700073  000000000000000000000000000000000000000000000000000000000000000000000000000000000000000000000000000000000000000000000                          0000000000                                                                  000059
102740645020001120000009075060952796600000064243              000000000000006424390000000000000000000000000902190917000006424300000000000000642439020318000000006000023700073  000000000000000000000000000000000000000000000000000000000000000000000000000000000000000000000000000000000000000000000                          0000000000                                                                  000060
102740645020001120000009075060952796600000064244              000000000000006424470000000000000000000000000902190917000006424400000000000000642447020418000000006000023700073  000000000000000000000000000000000000000000000000000000000000000000000000000000000000000000000000000000000000000000000                          0000000000                                                                  000061
102740645020001120000009075060952796600000064245              000000000000006424550000000000000000000000000902190917000006424500000000000000642455020518000000006000023700073  000000000000000000000000000000000000000000000000000000000000000000000000000000000000000000000000000000000000000000000                          0000000000                                                                  000062
102740645020001120000009075060952796600000064246              000000000000006424630000000000000000000000000902190917000006424600000000000000642463020618000000006000023700073  000000000000000000000000000000000000000000000000000000000000000000000000000000000000000000000000000000000000000000000                          0000000000                                                                  000063
102740645020001120000009075060952796600000064247              000000000000006424710000000000000000000000000902190917000006424700000000000000642471020718000000006000023700073  000000000000000000000000000000000000000000000000000000000000000000000000000000000000000000000000000000000000000000000                          0000000000                                                                  000064
102740645020001120000009075060952796600000064248              0000000000000064248P000000000000000000000000090219091700000642480000000000000064248P020818000000006000023700073  000000000000000000000000000000000000000000000000000000000000000000000000000000000000000000000000000000000000000000000                          0000000000                                                                  000065
102740645020001120000009075060952796600000064249              000000000000006424980000000000000000000000000902190917000006424900000000000000642498020918000000006000023700073  000000000000000000000000000000000000000000000000000000000000000000000000000000000000000000000000000000000000000000000                          0000000000                                                                  000066
102740645020001120000009075060952796600000064250              000000000000006425010000000000000000000000000902190917000006425000000000000000642501021018000000006000023700073  000000000000000000000000000000000000000000000000000000000000000000000000000000000000000000000000000000000000000000000                          0000000000                                                                  000067
102740645020001120000009075060952796600000064251              0000000000000064251P000000000000000000000000090219091700000642510000000000000064251P021118000000006000023700073  000000000000000000000000000000000000000000000000000000000000000000000000000000000000000000000000000000000000000000000                          0000000000                                                                  000068
102740645020001120000009075060952796600000064252              000000000000006425280000000000000000000000000902190917000006425200000000000000642528021218000000006000023700073  000000000000000000000000000000000000000000000000000000000000000000000000000000000000000000000000000000000000000000000                          0000000000                                                                  000069
102740645020001120000009075060952796600000064253              000000000000006425360000000000000000000000000902190917000006425300000000000000642536020119000000006000023700073  000000000000000000000000000000000000000000000000000000000000000000000000000000000000000000000000000000000000000000000                          0000000000                                                                  000070
102740645020001120000009075060952796600000064254              000000000000006425440000000000000000000000000902190917000006425400000000000000642544020219000000006000023700073  000000000000000000000000000000000000000000000000000000000000000000000000000000000000000000000000000000000000000000000                          0000000000                                                                  000071
102740645020001120000009075060952796600000064255              000000000000006425520000000000000000000000000902190917000006425500000000000000642552020319000000006000023700073  000000000000000000000000000000000000000000000000000000000000000000000000000000000000000000000000000000000000000000000                          0000000000                                                                  000072
102740645020001120000009075060952796600000064256              000000000000006425600000000000000000000000000902190917000006425600000000000000642560020419000000006000023700073  000000000000000000000000000000000000000000000000000000000000000000000000000000000000000000000000000000000000000000000                          0000000000                                                                  000073
102740645020001120000009075060952796600000064257              000000000000006425790000000000000000000000000902190917000006425700000000000000642579020519000000006000023700073  000000000000000000000000000000000000000000000000000000000000000000000000000000000000000000000000000000000000000000000                          0000000000                                                                  000074
102740645020001120000009075060952796600000064258              000000000000006425870000000000000000000000000902190917000006425800000000000000642587020619000000006000023700073  000000000000000000000000000000000000000000000000000000000000000000000000000000000000000000000000000000000000000000000                          0000000000                                                                  000075
102740645020001120000009075060952796600000064259              000000000000006425950000000000000000000000000902190917000006425900000000000000642595020719000000006000023700073  000000000000000000000000000000000000000000000000000000000000000000000000000000000000000000000000000000000000000000000                          0000000000                                                                  000076
102740645020001120000009075060952796600000064260              000000000000006426090000000000000000000000000902190917000006426000000000000000642609020819000000006000023700073  000000000000000000000000000000000000000000000000000000000000000000000000000000000000000000000000000000000000000000000                          0000000000                                                                  000077
102740645020001120000009075060952796600000064261              000000000000006426170000000000000000000000000902190917000006426100000000000000642617020919000000006000023700073  000000000000000000000000000000000000000000000000000000000000000000000000000000000000000000000000000000000000000000000                          0000000000                                                                  000078
102740645020001120000009075060952796600000064262              000000000000006426250000000000000000000000000902190917000006426200000000000000642625021019000000006000023700073  000000000000000000000000000000000000000000000000000000000000000000000000000000000000000000000000000000000000000000000                          0000000000                                                                  000079
102740645020001120000009075060952796600000064263              000000000000006426330000000000000000000000000902190917000006426300000000000000642633021119000000006000023700073  000000000000000000000000000000000000000000000000000000000000000000000000000000000000000000000000000000000000000000000                          0000000000                                                                  000080
102740645020001120000009075060952796600000064264              000000000000006426410000000000000000000000000902190917000006426400000000000000642641021219000000006000023700073  000000000000000000000000000000000000000000000000000000000000000000000000000000000000000000000000000000000000000000000                          0000000000                                                                  000081
102740645020001120000009075060952796600000064268              000000000000006426840000000000000000000000000902190917000006426800000000000000642684021017000000006000023700073  000000000000000000000000000000000000000000000000000000000000000000000000000000000000000000000000000000000000000000000                          0000000000                                                                  000082
102740645020001120000009075060952796600000064269              000000000000006426920000000000000000000000000902190917000006426900000000000000642692021117000000006000023700073  000000000000000000000000000000000000000000000000000000000000000000000000000000000000000000000000000000000000000000000                          0000000000                                                                  000083
102740645020001120000009075060952796600000064270              000000000000006427060000000000000000000000000902190917000006427000000000000000642706021217000000006000023700073  000000000000000000000000000000000000000000000000000000000000000000000000000000000000000000000000000000000000000000000                          0000000000                                                                  000084
102740645020001120000009075060952796600000064271              000000000000006427140000000000000000000000000902190917000006427100000000000000642714020118000000006000023700073  000000000000000000000000000000000000000000000000000000000000000000000000000000000000000000000000000000000000000000000                          0000000000                                                                  000085
102740645020001120000009075060952796600000064272              000000000000006427220000000000000000000000000902190917000006427200000000000000642722020218000000006000023700073  000000000000000000000000000000000000000000000000000000000000000000000000000000000000000000000000000000000000000000000                          0000000000                                                                  000086
102740645020001120000009075060952796600000064273              000000000000006427300000000000000000000000000902190917000006427300000000000000642730020318000000006000023700073  000000000000000000000000000000000000000000000000000000000000000000000000000000000000000000000000000000000000000000000                          0000000000                                                                  000087
102740645020001120000009075060952796600000064274              000000000000006427490000000000000000000000000902190917000006427400000000000000642749020418000000006000023700073  000000000000000000000000000000000000000000000000000000000000000000000000000000000000000000000000000000000000000000000                          0000000000                                                                  000088
102740645020001120000009075060952796600000064275              000000000000006427570000000000000000000000000902190917000006427500000000000000642757020518000000006000023700073  000000000000000000000000000000000000000000000000000000000000000000000000000000000000000000000000000000000000000000000                          0000000000                                                                  000089
102740645020001120000009075060952796600000064276              000000000000006427650000000000000000000000000902190917000006427600000000000000642765020618000000006000023700073  000000000000000000000000000000000000000000000000000000000000000000000000000000000000000000000000000000000000000000000                          0000000000                                                                  000090
102740645020001120000009075060952796600000064277              000000000000006427730000000000000000000000000902190917000006427700000000000000642773020718000000006000023700073  000000000000000000000000000000000000000000000000000000000000000000000000000000000000000000000000000000000000000000000                          0000000000                                                                  000091
102740645020001120000009075060952796600000064278              000000000000006427810000000000000000000000000902190917000006427800000000000000642781020818000000006000023700073  000000000000000000000000000000000000000000000000000000000000000000000000000000000000000000000000000000000000000000000                          0000000000                                                                  000092
102740645020001120000009075060952796600000064279              0000000000000064279P000000000000000000000000090219091700000642790000000000000064279P020918000000006000023700073  000000000000000000000000000000000000000000000000000000000000000000000000000000000000000000000000000000000000000000000                          0000000000                                                                  000093
102740645020001120000009075060952796600000064280              000000000000006428030000000000000000000000000902190917000006428000000000000000642803021018000000006000023700073  000000000000000000000000000000000000000000000000000000000000000000000000000000000000000000000000000000000000000000000                          0000000000                                                                  000094
102740645020001120000009075060952796600000064281              000000000000006428110000000000000000000000000902190917000006428100000000000000642811021118000000006000023700073  000000000000000000000000000000000000000000000000000000000000000000000000000000000000000000000000000000000000000000000                          0000000000                                                                  000095
102740645020001120000009075060952796600000064282              0000000000000064282P000000000000000000000000090219091700000642820000000000000064282P021218000000006000023700073  000000000000000000000000000000000000000000000000000000000000000000000000000000000000000000000000000000000000000000000                          0000000000                                                                  000096
102740645020001120000009075060952796600000064283              000000000000006428380000000000000000000000000902190917000006428300000000000000642838020119000000006000023700073  000000000000000000000000000000000000000000000000000000000000000000000000000000000000000000000000000000000000000000000                          0000000000                                                                  000097
102740645020001120000009075060952796600000064284              000000000000006428460000000000000000000000000902190917000006428400000000000000642846020219000000006000023700073  000000000000000000000000000000000000000000000000000000000000000000000000000000000000000000000000000000000000000000000                          0000000000                                                                  000098
102740645020001120000009075060952796600000064285              000000000000006428540000000000000000000000000902190917000006428500000000000000642854020319000000006000023700073  000000000000000000000000000000000000000000000000000000000000000000000000000000000000000000000000000000000000000000000                          0000000000                                                                  000099
102740645020001120000009075060952796600000064286              000000000000006428620000000000000000000000000902190917000006428600000000000000642862020419000000006000023700073  000000000000000000000000000000000000000000000000000000000000000000000000000000000000000000000000000000000000000000000                          0000000000                                                                  000100
102740645020001120000009075060952796600000064287              000000000000006428700000000000000000000000000902190917000006428700000000000000642870020519000000006000023700073  000000000000000000000000000000000000000000000000000000000000000000000000000000000000000000000000000000000000000000000                          0000000000                                                                  000101
102740645020001120000009075060952796600000064288              000000000000006428890000000000000000000000000902190917000006428800000000000000642889020619000000006000023700073  000000000000000000000000000000000000000000000000000000000000000000000000000000000000000000000000000000000000000000000                          0000000000                                                                  000102
102740645020001120000009075060952796600000064289              000000000000006428970000000000000000000000000902190917000006428900000000000000642897020719000000006000023700073  000000000000000000000000000000000000000000000000000000000000000000000000000000000000000000000000000000000000000000000                          0000000000                                                                  000103
102740645020001120000009075060952796600000064290              000000000000006429000000000000000000000000000902190917000006429000000000000000642900020819000000006000023700073  000000000000000000000000000000000000000000000000000000000000000000000000000000000000000000000000000000000000000000000                          0000000000                                                                  000104
102740645020001120000009075060952796600000064291              000000000000006429190000000000000000000000000902190917000006429100000000000000642919020919000000006000023700073  000000000000000000000000000000000000000000000000000000000000000000000000000000000000000000000000000000000000000000000                          0000000000                                                                  000105
102740645020001120000009075060952796600000064292              000000000000006429270000000000000000000000000902190917000006429200000000000000642927021019000000006000023700073  000000000000000000000000000000000000000000000000000000000000000000000000000000000000000000000000000000000000000000000                          0000000000                                                                  000106
102740645020001120000009075060952796600000064293              000000000000006429350000000000000000000000000902190917000006429300000000000000642935021119000000006000023700073  000000000000000000000000000000000000000000000000000000000000000000000000000000000000000000000000000000000000000000000                          0000000000                                                                  000107
102740645020001120000009075060952796600000064294              000000000000006429430000000000000000000000000902190917000006429400000000000000642943021219000000006000023700073  000000000000000000000000000000000000000000000000000000000000000000000000000000000000000000000000000000000000000000000                          0000000000                                                                  000108
102740645020001120000009075060952796600000064298              000000000000006429860000000000000000000000000902190917000006429800000000000000642986021017000000004500023700073  000000000000000000000000000000000000000000000000000000000000000000000000000000000000000000000000000000000000000000000                          0000000000                                                                  000109
102740645020001120000009075060952796600000064299              000000000000006429940000000000000000000000000902190917000006429900000000000000642994021117000000004500023700073  000000000000000000000000000000000000000000000000000000000000000000000000000000000000000000000000000000000000000000000                          0000000000                                                                  000110
102740645020001120000009075060952796600000064300              000000000000006430010000000000000000000000000902190917000006430000000000000000643001021217000000004500023700073  000000000000000000000000000000000000000000000000000000000000000000000000000000000000000000000000000000000000000000000                          0000000000                                                                  000111
102740645020001120000009075060952796600000064301              0000000000000064301P000000000000000000000000090219091700000643010000000000000064301P020118000000004500023700073  000000000000000000000000000000000000000000000000000000000000000000000000000000000000000000000000000000000000000000000                          0000000000                                                                  000112
102740645020001120000009075060952796600000064302              000000000000006430280000000000000000000000000902190917000006430200000000000000643028020218000000004500023700073  000000000000000000000000000000000000000000000000000000000000000000000000000000000000000000000000000000000000000000000                          0000000000                                                                  000113
102740645020001120000009075060952796600000064303              000000000000006430360000000000000000000000000902190917000006430300000000000000643036020318000000004500023700073  000000000000000000000000000000000000000000000000000000000000000000000000000000000000000000000000000000000000000000000                          0000000000                                                                  000114
102740645020001120000009075060952796600000064304              000000000000006430440000000000000000000000000902190917000006430400000000000000643044020418000000004500023700073  000000000000000000000000000000000000000000000000000000000000000000000000000000000000000000000000000000000000000000000                          0000000000                                                                  000115
102740645020001120000009075060952796600000064305              000000000000006430520000000000000000000000000902190917000006430500000000000000643052020518000000004500023700073  000000000000000000000000000000000000000000000000000000000000000000000000000000000000000000000000000000000000000000000                          0000000000                                                                  000116
102740645020001120000009075060952796600000064306              000000000000006430600000000000000000000000000902190917000006430600000000000000643060020618000000004500023700073  000000000000000000000000000000000000000000000000000000000000000000000000000000000000000000000000000000000000000000000                          0000000000                                                                  000117
102740645020001120000009075060952796600000064307              000000000000006430790000000000000000000000000902190917000006430700000000000000643079020718000000004500023700073  000000000000000000000000000000000000000000000000000000000000000000000000000000000000000000000000000000000000000000000                          0000000000                                                                  000118
102740645020001120000009075060952796600000064308              000000000000006430870000000000000000000000000902190917000006430800000000000000643087020818000000004500023700073  000000000000000000000000000000000000000000000000000000000000000000000000000000000000000000000000000000000000000000000                          0000000000                                                                  000119
102740645020001120000009075060952796600000064309              000000000000006430950000000000000000000000000902190917000006430900000000000000643095020918000000004500023700073  000000000000000000000000000000000000000000000000000000000000000000000000000000000000000000000000000000000000000000000                          0000000000                                                                  000120
102740645020001120000009075060952796600000064310              000000000000006431090000000000000000000000000902190917000006431000000000000000643109021018000000004500023700073  000000000000000000000000000000000000000000000000000000000000000000000000000000000000000000000000000000000000000000000                          0000000000                                                                  000121
102740645020001120000009075060952796600000064311              000000000000006431170000000000000000000000000902190917000006431100000000000000643117021118000000004500023700073  000000000000000000000000000000000000000000000000000000000000000000000000000000000000000000000000000000000000000000000                          0000000000                                                                  000122
102740645020001120000009075060952796600000064312              000000000000006431250000000000000000000000000902190917000006431200000000000000643125021218000000004500023700073  000000000000000000000000000000000000000000000000000000000000000000000000000000000000000000000000000000000000000000000                          0000000000                                                                  000123
102740645020001120000009075060952796600000064313              000000000000006431330000000000000000000000000902190917000006431300000000000000643133020119000000004500023700073  000000000000000000000000000000000000000000000000000000000000000000000000000000000000000000000000000000000000000000000                          0000000000                                                                  000124
102740645020001120000009075060952796600000064314              000000000000006431410000000000000000000000000902190917000006431400000000000000643141020219000000004500023700073  000000000000000000000000000000000000000000000000000000000000000000000000000000000000000000000000000000000000000000000                          0000000000                                                                  000125
102740645020001120000009075060952796600000064315              0000000000000064315P000000000000000000000000090219091700000643150000000000000064315P020319000000004500023700073  000000000000000000000000000000000000000000000000000000000000000000000000000000000000000000000000000000000000000000000                          0000000000                                                                  000126
102740645020001120000009075060952796600000064316              000000000000006431680000000000000000000000000902190917000006431600000000000000643168020419000000004500023700073  000000000000000000000000000000000000000000000000000000000000000000000000000000000000000000000000000000000000000000000                          0000000000                                                                  000127
102740645020001120000009075060952796600000064317              000000000000006431760000000000000000000000000902190917000006431700000000000000643176020519000000004500023700073  000000000000000000000000000000000000000000000000000000000000000000000000000000000000000000000000000000000000000000000                          0000000000                                                                  000128
102740645020001120000009075060952796600000064318              000000000000006431840000000000000000000000000902190917000006431800000000000000643184020619000000004500023700073  000000000000000000000000000000000000000000000000000000000000000000000000000000000000000000000000000000000000000000000                          0000000000                                                                  000129
102740645020001120000009075060952796600000064319              000000000000006431920000000000000000000000000902190917000006431900000000000000643192020719000000004500023700073  000000000000000000000000000000000000000000000000000000000000000000000000000000000000000000000000000000000000000000000                          0000000000                                                                  000130
102740645020001120000009075060952796600000064320              000000000000006432060000000000000000000000000902190917000006432000000000000000643206020819000000004500023700073  000000000000000000000000000000000000000000000000000000000000000000000000000000000000000000000000000000000000000000000                          0000000000                                                                  000131
102740645020001120000009075060952796600000064321              000000000000006432140000000000000000000000000902190917000006432100000000000000643214020919000000004500023700073  000000000000000000000000000000000000000000000000000000000000000000000000000000000000000000000000000000000000000000000                          0000000000                                                                  000132
102740645020001120000009075060952796600000064322              000000000000006432220000000000000000000000000902190917000006432200000000000000643222021019000000004500023700073  000000000000000000000000000000000000000000000000000000000000000000000000000000000000000000000000000000000000000000000                          0000000000                                                                  000133
102740645020001120000009075060952796600000064323              000000000000006432300000000000000000000000000902190917000006432300000000000000643230021119000000004500023700073  000000000000000000000000000000000000000000000000000000000000000000000000000000000000000000000000000000000000000000000                          0000000000                                                                  000134
102740645020001120000009075060952796600000064324              000000000000006432490000000000000000000000000902190917000006432400000000000000643249021219000000004500023700073  000000000000000000000000000000000000000000000000000000000000000000000000000000000000000000000000000000000000000000000                          0000000000                                                                  000135
102740645020001120000009075060952796600000064328              000000000000006432810000000000000000000000000902190917000006432800000000000000643281021017000000005000023700073  000000000000000000000000000000000000000000000000000000000000000000000000000000000000000000000000000000000000000000000                          0000000000                                                                  000136
102740645020001120000009075060952796600000064329              0000000000000064329P000000000000000000000000090219091700000643290000000000000064329P021117000000005000023700073  000000000000000000000000000000000000000000000000000000000000000000000000000000000000000000000000000000000000000000000                          0000000000                                                                  000137
102740645020001120000009075060952796600000064330              000000000000006433030000000000000000000000000902190917000006433000000000000000643303021217000000005000023700073  000000000000000000000000000000000000000000000000000000000000000000000000000000000000000000000000000000000000000000000                          0000000000                                                                  000138
102740645020001120000009075060952796600000064331              000000000000006433110000000000000000000000000902190917000006433100000000000000643311020118000000005000023700073  000000000000000000000000000000000000000000000000000000000000000000000000000000000000000000000000000000000000000000000                          0000000000                                                                  000139
102740645020001120000009075060952796600000064332              0000000000000064332P000000000000000000000000090219091700000643320000000000000064332P020218000000005000023700073  000000000000000000000000000000000000000000000000000000000000000000000000000000000000000000000000000000000000000000000                          0000000000                                                                  000140
102740645020001120000009075060952796600000064333              000000000000006433380000000000000000000000000902190917000006433300000000000000643338020318000000005000023700073  000000000000000000000000000000000000000000000000000000000000000000000000000000000000000000000000000000000000000000000                          0000000000                                                                  000141
102740645020001120000009075060952796600000064334              000000000000006433460000000000000000000000000902190917000006433400000000000000643346020418000000005000023700073  000000000000000000000000000000000000000000000000000000000000000000000000000000000000000000000000000000000000000000000                          0000000000                                                                  000142
102740645020001120000009075060952796600000064335              000000000000006433540000000000000000000000000902190917000006433500000000000000643354020518000000005000023700073  000000000000000000000000000000000000000000000000000000000000000000000000000000000000000000000000000000000000000000000                          0000000000                                                                  000143
102740645020001120000009075060952796600000064336              000000000000006433620000000000000000000000000902190917000006433600000000000000643362020618000000005000023700073  000000000000000000000000000000000000000000000000000000000000000000000000000000000000000000000000000000000000000000000                          0000000000                                                                  000144
102740645020001120000009075060952796600000064337              000000000000006433700000000000000000000000000902190917000006433700000000000000643370020718000000005000023700073  000000000000000000000000000000000000000000000000000000000000000000000000000000000000000000000000000000000000000000000                          0000000000                                                                  000145
102740645020001120000009075060952796600000064338              000000000000006433890000000000000000000000000902190917000006433800000000000000643389020818000000005000023700073  000000000000000000000000000000000000000000000000000000000000000000000000000000000000000000000000000000000000000000000                          0000000000                                                                  000146
102740645020001120000009075060952796600000064339              000000000000006433970000000000000000000000000902190917000006433900000000000000643397020918000000005000023700073  000000000000000000000000000000000000000000000000000000000000000000000000000000000000000000000000000000000000000000000                          0000000000                                                                  000147
102740645020001120000009075060952796600000064340              000000000000006434000000000000000000000000000902190917000006434000000000000000643400021018000000005000023700073  000000000000000000000000000000000000000000000000000000000000000000000000000000000000000000000000000000000000000000000                          0000000000                                                                  000148
102740645020001120000009075060952796600000064341              000000000000006434190000000000000000000000000902190917000006434100000000000000643419021118000000005000023700073  000000000000000000000000000000000000000000000000000000000000000000000000000000000000000000000000000000000000000000000                          0000000000                                                                  000149
102740645020001120000009075060952796600000064342              000000000000006434270000000000000000000000000902190917000006434200000000000000643427021218000000005000023700073  000000000000000000000000000000000000000000000000000000000000000000000000000000000000000000000000000000000000000000000                          0000000000                                                                  000150
102740645020001120000009075060952796600000064343              000000000000006434350000000000000000000000000902190917000006434300000000000000643435020119000000005000023700073  000000000000000000000000000000000000000000000000000000000000000000000000000000000000000000000000000000000000000000000                          0000000000                                                                  000151
102740645020001120000009075060952796600000064344              000000000000006434430000000000000000000000000902190917000006434400000000000000643443020219000000005000023700073  000000000000000000000000000000000000000000000000000000000000000000000000000000000000000000000000000000000000000000000                          0000000000                                                                  000152
102740645020001120000009075060952796600000064345              000000000000006434510000000000000000000000000902190917000006434500000000000000643451020319000000005000023700073  000000000000000000000000000000000000000000000000000000000000000000000000000000000000000000000000000000000000000000000                          0000000000                                                                  000153
102740645020001120000009075060952796600000064346              0000000000000064346P000000000000000000000000090219091700000643460000000000000064346P020419000000005000023700073  000000000000000000000000000000000000000000000000000000000000000000000000000000000000000000000000000000000000000000000                          0000000000                                                                  000154
102740645020001120000009075060952796600000064347              000000000000006434780000000000000000000000000902190917000006434700000000000000643478020519000000005000023700073  000000000000000000000000000000000000000000000000000000000000000000000000000000000000000000000000000000000000000000000                          0000000000                                                                  000155
102740645020001120000009075060952796600000064348              000000000000006434860000000000000000000000000902190917000006434800000000000000643486020619000000005000023700073  000000000000000000000000000000000000000000000000000000000000000000000000000000000000000000000000000000000000000000000                          0000000000                                                                  000156
102740645020001120000009075060952796600000064349              000000000000006434940000000000000000000000000902190917000006434900000000000000643494020719000000005000023700073  000000000000000000000000000000000000000000000000000000000000000000000000000000000000000000000000000000000000000000000                          0000000000                                                                  000157
102740645020001120000009075060952796600000064350              000000000000006435080000000000000000000000000902190917000006435000000000000000643508020819000000005000023700073  000000000000000000000000000000000000000000000000000000000000000000000000000000000000000000000000000000000000000000000                          0000000000                                                                  000158
102740645020001120000009075060952796600000064351              000000000000006435160000000000000000000000000902190917000006435100000000000000643516020919000000005000023700073  000000000000000000000000000000000000000000000000000000000000000000000000000000000000000000000000000000000000000000000                          0000000000                                                                  000159
102740645020001120000009075060952796600000064352              000000000000006435240000000000000000000000000902190917000006435200000000000000643524021019000000005000023700073  000000000000000000000000000000000000000000000000000000000000000000000000000000000000000000000000000000000000000000000                          0000000000                                                                  000160
102740645020001120000009075060952796600000064353              000000000000006435320000000000000000000000000902190917000006435300000000000000643532021119000000005000023700073  000000000000000000000000000000000000000000000000000000000000000000000000000000000000000000000000000000000000000000000                          0000000000                                                                  000161
102740645020001120000009075060952796600000064354              000000000000006435400000000000000000000000000902190917000006435400000000000000643540021219000000005000023700073  000000000000000000000000000000000000000000000000000000000000000000000000000000000000000000000000000000000000000000000                          0000000000                                                                  000162
102740645020001120000009075060952796600000064358              000000000000006435830000000000000000000000000902190917000006435800000000000000643583021017000000002200023700073  000000000000000000000000000000000000000000000000000000000000000000000000000000000000000000000000000000000000000000000                          0000000000                                                                  000163
102740645020001120000009075060952796600000064359              000000000000006435910000000000000000000000000902190917000006435900000000000000643591021117000000002200023700073  000000000000000000000000000000000000000000000000000000000000000000000000000000000000000000000000000000000000000000000                          0000000000                                                                  000164
102740645020001120000009075060952796600000064360              000000000000006436050000000000000000000000000902190917000006436000000000000000643605021217000000002200023700073  000000000000000000000000000000000000000000000000000000000000000000000000000000000000000000000000000000000000000000000                          0000000000                                                                  000165
102740645020001120000009075060952796600000064361              000000000000006436130000000000000000000000000902190917000006436100000000000000643613020118000000002200023700073  000000000000000000000000000000000000000000000000000000000000000000000000000000000000000000000000000000000000000000000                          0000000000                                                                  000166
102740645020001120000009075060952796600000064362              000000000000006436210000000000000000000000000902190917000006436200000000000000643621020218000000002200023700073  000000000000000000000000000000000000000000000000000000000000000000000000000000000000000000000000000000000000000000000                          0000000000                                                                  000167
102740645020001120000009075060952796600000064363              0000000000000064363P000000000000000000000000090219091700000643630000000000000064363P020318000000002200023700073  000000000000000000000000000000000000000000000000000000000000000000000000000000000000000000000000000000000000000000000                          0000000000                                                                  000168
102740645020001120000009075060952796600000064364              000000000000006436480000000000000000000000000902190917000006436400000000000000643648020418000000002200023700073  000000000000000000000000000000000000000000000000000000000000000000000000000000000000000000000000000000000000000000000                          0000000000                                                                  000169
102740645020001120000009075060952796600000064365              000000000000006436560000000000000000000000000902190917000006436500000000000000643656020518000000002200023700073  000000000000000000000000000000000000000000000000000000000000000000000000000000000000000000000000000000000000000000000                          0000000000                                                                  000170
102740645020001120000009075060952796600000064366              000000000000006436640000000000000000000000000902190917000006436600000000000000643664020618000000002200023700073  000000000000000000000000000000000000000000000000000000000000000000000000000000000000000000000000000000000000000000000                          0000000000                                                                  000171
102740645020001120000009075060952796600000064367              000000000000006436720000000000000000000000000902190917000006436700000000000000643672020718000000002200023700073  000000000000000000000000000000000000000000000000000000000000000000000000000000000000000000000000000000000000000000000                          0000000000                                                                  000172
102740645020001120000009075060952796600000064368              000000000000006436800000000000000000000000000902190917000006436800000000000000643680020818000000002200023700073  000000000000000000000000000000000000000000000000000000000000000000000000000000000000000000000000000000000000000000000                          0000000000                                                                  000173
102740645020001120000009075060952796600000064369              000000000000006436990000000000000000000000000902190917000006436900000000000000643699020918000000002200023700073  000000000000000000000000000000000000000000000000000000000000000000000000000000000000000000000000000000000000000000000                          0000000000                                                                  000174
102740645020001120000009075060952796600000064370              000000000000006437020000000000000000000000000902190917000006437000000000000000643702021018000000002200023700073  000000000000000000000000000000000000000000000000000000000000000000000000000000000000000000000000000000000000000000000                          0000000000                                                                  000175
102740645020001120000009075060952796600000064371              000000000000006437100000000000000000000000000902190917000006437100000000000000643710021118000000002200023700073  000000000000000000000000000000000000000000000000000000000000000000000000000000000000000000000000000000000000000000000                          0000000000                                                                  000176
102740645020001120000009075060952796600000064372              000000000000006437290000000000000000000000000902190917000006437200000000000000643729021218000000002200023700073  000000000000000000000000000000000000000000000000000000000000000000000000000000000000000000000000000000000000000000000                          0000000000                                                                  000177
102740645020001120000009075060952796600000064373              000000000000006437370000000000000000000000000902190917000006437300000000000000643737020119000000002200023700073  000000000000000000000000000000000000000000000000000000000000000000000000000000000000000000000000000000000000000000000                          0000000000                                                                  000178
102740645020001120000009075060952796600000064374              000000000000006437450000000000000000000000000902190917000006437400000000000000643745020219000000002200023700073  000000000000000000000000000000000000000000000000000000000000000000000000000000000000000000000000000000000000000000000                          0000000000                                                                  000179
102740645020001120000009075060952796600000064375              000000000000006437530000000000000000000000000902190917000006437500000000000000643753020319000000002200023700073  000000000000000000000000000000000000000000000000000000000000000000000000000000000000000000000000000000000000000000000                          0000000000                                                                  000180
102740645020001120000009075060952796600000064376              000000000000006437610000000000000000000000000902190917000006437600000000000000643761020419000000002200023700073  000000000000000000000000000000000000000000000000000000000000000000000000000000000000000000000000000000000000000000000                          0000000000                                                                  000181
102740645020001120000009075060952796600000064377              0000000000000064377P000000000000000000000000090219091700000643770000000000000064377P020519000000002200023700073  000000000000000000000000000000000000000000000000000000000000000000000000000000000000000000000000000000000000000000000                          0000000000                                                                  000182
102740645020001120000009075060952796600000064378              000000000000006437880000000000000000000000000902190917000006437800000000000000643788020619000000002200023700073  000000000000000000000000000000000000000000000000000000000000000000000000000000000000000000000000000000000000000000000                          0000000000                                                                  000183
102740645020001120000009075060952796600000064379              000000000000006437960000000000000000000000000902190917000006437900000000000000643796020719000000002200023700073  000000000000000000000000000000000000000000000000000000000000000000000000000000000000000000000000000000000000000000000                          0000000000                                                                  000184
102740645020001120000009075060952796600000064380              0000000000000064380P000000000000000000000000090219091700000643800000000000000064380P020819000000002200023700073  000000000000000000000000000000000000000000000000000000000000000000000000000000000000000000000000000000000000000000000                          0000000000                                                                  000185
102740645020001120000009075060952796600000064381              000000000000006438180000000000000000000000000902190917000006438100000000000000643818020919000000002200023700073  000000000000000000000000000000000000000000000000000000000000000000000000000000000000000000000000000000000000000000000                          0000000000                                                                  000186
102740645020001120000009075060952796600000064382              000000000000006438260000000000000000000000000902190917000006438200000000000000643826021019000000002200023700073  000000000000000000000000000000000000000000000000000000000000000000000000000000000000000000000000000000000000000000000                          0000000000                                                                  000187
102740645020001120000009075060952796600000064383              000000000000006438340000000000000000000000000902190917000006438300000000000000643834021119000000002200023700073  000000000000000000000000000000000000000000000000000000000000000000000000000000000000000000000000000000000000000000000                          0000000000                                                                  000188
102740645020001120000009075060952796600000064384              000000000000006438420000000000000000000000000902190917000006438400000000000000643842021219000000002200023700073  000000000000000000000000000000000000000000000000000000000000000000000000000000000000000000000000000000000000000000000                          0000000000                                                                  000189
102740645020001120000009075060952796600000064388              000000000000006438850000000000000000000000000902190917000006438800000000000000643885220917000000002500023704159  000000000000000000000000000000000000000000000000000000000000000000000000000000000000000000000000000000000000000000000                          0000000000                                                                  000190
102740645020001120000009075060952796600000064389              000000000000006438930000000000000000000000000902190917000006438900000000000000643893070819000000002500023704159  000000000000000000000000000000000000000000000000000000000000000000000000000000000000000000000000000000000000000000000                          0000000000                                                                  000191
102740645020001120000009075060952796600000064390              000000000000006439070000000000000000000000000902190917000006439000000000000000643907071017000000002500023704159  000000000000000000000000000000000000000000000000000000000000000000000000000000000000000000000000000000000000000000000                          0000000000                                                                  000192
102740645020001120000009075060952796600000064391              000000000000006439150000000000000000000000000902190917000006439100000000000000643915071117000000002500023704159  000000000000000000000000000000000000000000000000000000000000000000000000000000000000000000000000000000000000000000000                          0000000000                                                                  000193
102740645020001120000009075060952796600000064392              000000000000006439230000000000000000000000000902190917000006439200000000000000643923071217000000002500023704159  000000000000000000000000000000000000000000000000000000000000000000000000000000000000000000000000000000000000000000000                          0000000000                                                                  000194
102740645020001120000009075060952796600000064393              000000000000006439310000000000000000000000000902190917000006439300000000000000643931070118000000002500023704159  000000000000000000000000000000000000000000000000000000000000000000000000000000000000000000000000000000000000000000000                          0000000000                                                                  000195
102740645020001120000009075060952796600000064394              0000000000000064394P000000000000000000000000090219091700000643940000000000000064394P070218000000002500023704159  000000000000000000000000000000000000000000000000000000000000000000000000000000000000000000000000000000000000000000000                          0000000000                                                                  000196
102740645020001120000009075060952796600000064395              000000000000006439580000000000000000000000000902190917000006439500000000000000643958070318000000002500023704159  000000000000000000000000000000000000000000000000000000000000000000000000000000000000000000000000000000000000000000000                          0000000000                                                                  000197
102740645020001120000009075060952796600000064396              000000000000006439660000000000000000000000000902190917000006439600000000000000643966070418000000002500023704159  000000000000000000000000000000000000000000000000000000000000000000000000000000000000000000000000000000000000000000000                          0000000000                                                                  000198
102740645020001120000009075060952796600000064397              000000000000006439740000000000000000000000000902190917000006439700000000000000643974070518000000002500023704159  000000000000000000000000000000000000000000000000000000000000000000000000000000000000000000000000000000000000000000000                          0000000000                                                                  000199
102740645020001120000009075060952796600000064398              000000000000006439820000000000000000000000000902190917000006439800000000000000643982070618000000002500023704159  000000000000000000000000000000000000000000000000000000000000000000000000000000000000000000000000000000000000000000000                          0000000000                                                                  000200
102740645020001120000009075060952796600000064399              000000000000006439900000000000000000000000000902190917000006439900000000000000643990070718000000002500023704159  000000000000000000000000000000000000000000000000000000000000000000000000000000000000000000000000000000000000000000000                          0000000000                                                                  000201
102740645020001120000009075060952796600000064400              000000000000006440080000000000000000000000000902190917000006440000000000000000644008070818000000002500023704159  000000000000000000000000000000000000000000000000000000000000000000000000000000000000000000000000000000000000000000000                          0000000000                                                                  000202
102740645020001120000009075060952796600000064401              000000000000006440160000000000000000000000000902190917000006440100000000000000644016070918000000002500023704159  000000000000000000000000000000000000000000000000000000000000000000000000000000000000000000000000000000000000000000000                          0000000000                                                                  000203
102740645020001120000009075060952796600000064402              000000000000006440240000000000000000000000000902190917000006440200000000000000644024071018000000002500023704159  000000000000000000000000000000000000000000000000000000000000000000000000000000000000000000000000000000000000000000000                          0000000000                                                                  000204
102740645020001120000009075060952796600000064403              000000000000006440320000000000000000000000000902190917000006440300000000000000644032071118000000002500023704159  000000000000000000000000000000000000000000000000000000000000000000000000000000000000000000000000000000000000000000000                          0000000000                                                                  000205
102740645020001120000009075060952796600000064404              000000000000006440400000000000000000000000000902190917000006440400000000000000644040071218000000002500023704159  000000000000000000000000000000000000000000000000000000000000000000000000000000000000000000000000000000000000000000000                          0000000000                                                                  000206
102740645020001120000009075060952796600000064405              000000000000006440590000000000000000000000000902190917000006440500000000000000644059070119000000002500023704159  000000000000000000000000000000000000000000000000000000000000000000000000000000000000000000000000000000000000000000000                          0000000000                                                                  000207
102740645020001120000009075060952796600000064406              000000000000006440670000000000000000000000000902190917000006440600000000000000644067070219000000002500023704159  000000000000000000000000000000000000000000000000000000000000000000000000000000000000000000000000000000000000000000000                          0000000000                                                                  000208
102740645020001120000009075060952796600000064407              000000000000006440750000000000000000000000000902190917000006440700000000000000644075070319000000002500023704159  000000000000000000000000000000000000000000000000000000000000000000000000000000000000000000000000000000000000000000000                          0000000000                                                                  000209
102740645020001120000009075060952796600000064408              000000000000006440830000000000000000000000000902190917000006440800000000000000644083070419000000002500023704159  000000000000000000000000000000000000000000000000000000000000000000000000000000000000000000000000000000000000000000000                          0000000000                                                                  000210
102740645020001120000009075060952796600000064409              000000000000006440910000000000000000000000000902190917000006440900000000000000644091070519000000002500023704159  000000000000000000000000000000000000000000000000000000000000000000000000000000000000000000000000000000000000000000000                          0000000000                                                                  000211
102740645020001120000009075060952796600000064410              000000000000006441050000000000000000000000000902190917000006441000000000000000644105070619000000002500023704159  000000000000000000000000000000000000000000000000000000000000000000000000000000000000000000000000000000000000000000000                          0000000000                                                                  000212
102740645020001120000009075060952796600000064411              000000000000006441130000000000000000000000000902190917000006441100000000000000644113070719000000002500023704159  000000000000000000000000000000000000000000000000000000000000000000000000000000000000000000000000000000000000000000000                          0000000000                                                                  000213
102740645020001120000009075060952796600000064415              000000000000006441560000000000000000000000000902190917000006441500000000000000644156220917000000001800023704159  000000000000000000000000000000000000000000000000000000000000000000000000000000000000000000000000000000000000000000000                          0000000000                                                                  000214
102740645020001120000009075060952796600000064416              000000000000006441640000000000000000000000000902190917000006441600000000000000644164070819000000001800023704159  000000000000000000000000000000000000000000000000000000000000000000000000000000000000000000000000000000000000000000000                          0000000000                                                                  000215
102740645020001120000009075060952796600000064417              000000000000006441720000000000000000000000000902190917000006441700000000000000644172071017000000001800023704159  000000000000000000000000000000000000000000000000000000000000000000000000000000000000000000000000000000000000000000000                          0000000000                                                                  000216
102740645020001120000009075060952796600000064418              000000000000006441800000000000000000000000000902190917000006441800000000000000644180071117000000001800023704159  000000000000000000000000000000000000000000000000000000000000000000000000000000000000000000000000000000000000000000000                          0000000000                                                                  000217
102740645020001120000009075060952796600000064419              000000000000006441990000000000000000000000000902190917000006441900000000000000644199071217000000001800023704159  000000000000000000000000000000000000000000000000000000000000000000000000000000000000000000000000000000000000000000000                          0000000000                                                                  000218
102740645020001120000009075060952796600000064420              000000000000006442020000000000000000000000000902190917000006442000000000000000644202070118000000001800023704159  000000000000000000000000000000000000000000000000000000000000000000000000000000000000000000000000000000000000000000000                          0000000000                                                                  000219
102740645020001120000009075060952796600000064421              000000000000006442100000000000000000000000000902190917000006442100000000000000644210070218000000001800023704159  000000000000000000000000000000000000000000000000000000000000000000000000000000000000000000000000000000000000000000000                          0000000000                                                                  000220
102740645020001120000009075060952796600000064422              000000000000006442290000000000000000000000000902190917000006442200000000000000644229070318000000001800023704159  000000000000000000000000000000000000000000000000000000000000000000000000000000000000000000000000000000000000000000000                          0000000000                                                                  000221
102740645020001120000009075060952796600000064423              000000000000006442370000000000000000000000000902190917000006442300000000000000644237070418000000001800023704159  000000000000000000000000000000000000000000000000000000000000000000000000000000000000000000000000000000000000000000000                          0000000000                                                                  000222
102740645020001120000009075060952796600000064424              000000000000006442450000000000000000000000000902190917000006442400000000000000644245070518000000001800023704159  000000000000000000000000000000000000000000000000000000000000000000000000000000000000000000000000000000000000000000000                          0000000000                                                                  000223
102740645020001120000009075060952796600000064425              000000000000006442530000000000000000000000000902190917000006442500000000000000644253070618000000001800023704159  000000000000000000000000000000000000000000000000000000000000000000000000000000000000000000000000000000000000000000000                          0000000000                                                                  000224
102740645020001120000009075060952796600000064426              000000000000006442610000000000000000000000000902190917000006442600000000000000644261070718000000001800023704159  000000000000000000000000000000000000000000000000000000000000000000000000000000000000000000000000000000000000000000000                          0000000000                                                                  000225
102740645020001120000009075060952796600000064427              0000000000000064427P000000000000000000000000090219091700000644270000000000000064427P070818000000001800023704159  000000000000000000000000000000000000000000000000000000000000000000000000000000000000000000000000000000000000000000000                          0000000000                                                                  000226
102740645020001120000009075060952796600000064428              000000000000006442880000000000000000000000000902190917000006442800000000000000644288070918000000001800023704159  000000000000000000000000000000000000000000000000000000000000000000000000000000000000000000000000000000000000000000000                          0000000000                                                                  000227
102740645020001120000009075060952796600000064429              000000000000006442960000000000000000000000000902190917000006442900000000000000644296071018000000001800023704159  000000000000000000000000000000000000000000000000000000000000000000000000000000000000000000000000000000000000000000000                          0000000000                                                                  000228
102740645020001120000009075060952796600000064430              0000000000000064430P000000000000000000000000090219091700000644300000000000000064430P071118000000001800023704159  000000000000000000000000000000000000000000000000000000000000000000000000000000000000000000000000000000000000000000000                          0000000000                                                                  000229
102740645020001120000009075060952796600000064431              000000000000006443180000000000000000000000000902190917000006443100000000000000644318071218000000001800023704159  000000000000000000000000000000000000000000000000000000000000000000000000000000000000000000000000000000000000000000000                          0000000000                                                                  000230
102740645020001120000009075060952796600000064432              000000000000006443260000000000000000000000000902190917000006443200000000000000644326070119000000001800023704159  000000000000000000000000000000000000000000000000000000000000000000000000000000000000000000000000000000000000000000000                          0000000000                                                                  000231
102740645020001120000009075060952796600000064433              000000000000006443340000000000000000000000000902190917000006443300000000000000644334070219000000001800023704159  000000000000000000000000000000000000000000000000000000000000000000000000000000000000000000000000000000000000000000000                          0000000000                                                                  000232
102740645020001120000009075060952796600000064434              000000000000006443420000000000000000000000000902190917000006443400000000000000644342070319000000001800023704159  000000000000000000000000000000000000000000000000000000000000000000000000000000000000000000000000000000000000000000000                          0000000000                                                                  000233
102740645020001120000009075060952796600000064435              000000000000006443500000000000000000000000000902190917000006443500000000000000644350070419000000001800023704159  000000000000000000000000000000000000000000000000000000000000000000000000000000000000000000000000000000000000000000000                          0000000000                                                                  000234
102740645020001120000009075060952796600000064436              000000000000006443690000000000000000000000000902190917000006443600000000000000644369070519000000001800023704159  000000000000000000000000000000000000000000000000000000000000000000000000000000000000000000000000000000000000000000000                          0000000000                                                                  000235
102740645020001120000009075060952796600000064437              000000000000006443770000000000000000000000000902190917000006443700000000000000644377070619000000001800023704159  000000000000000000000000000000000000000000000000000000000000000000000000000000000000000000000000000000000000000000000                          0000000000                                                                  000236
102740645020001120000009075060952796600000064438              000000000000006443850000000000000000000000000902190917000006443800000000000000644385070719000000001800023704159  000000000000000000000000000000000000000000000000000000000000000000000000000000000000000000000000000000000000000000000                          0000000000                                                                  000237
102740645020001120000009075060952796600000064440              000000000000006444070000000000000000000000000902190917000006444000000000000000644407041017000000000650023704424  000000000000000000000000000000000000000000000000000000000000000000000000000000000000000000000000000000000000000000000                          0000000000                                                                  000238
102740645020001120000009075060952796600000064441              000000000000006444150000000000000000000000000902190917000006444100000000000000644415041117000000000650023704424  000000000000000000000000000000000000000000000000000000000000000000000000000000000000000000000000000000000000000000000                          0000000000                                                                  000239
102740645020001120000009075060952796600000064442              000000000000006444230000000000000000000000000902190917000006444200000000000000644423041217000000000650023704424  000000000000000000000000000000000000000000000000000000000000000000000000000000000000000000000000000000000000000000000                          0000000000                                                                  000240
102740645020001120000009075060952796600000064443              000000000000006444310000000000000000000000000902190917000006444300000000000000644431040118000000000650023704424  000000000000000000000000000000000000000000000000000000000000000000000000000000000000000000000000000000000000000000000                          0000000000                                                                  000241
102740645020001120000009075060952796600000064444              0000000000000064444P000000000000000000000000090219091700000644440000000000000064444P040218000000000650023704424  000000000000000000000000000000000000000000000000000000000000000000000000000000000000000000000000000000000000000000000                          0000000000                                                                  000242
102740645020001120000009075060952796600000064445              000000000000006444580000000000000000000000000902190917000006444500000000000000644458040318000000000650023704424  000000000000000000000000000000000000000000000000000000000000000000000000000000000000000000000000000000000000000000000                          0000000000                                                                  000243
102740645020001120000009075060952796600000064446              000000000000006444660000000000000000000000000902190917000006444600000000000000644466040418000000000650023704424  000000000000000000000000000000000000000000000000000000000000000000000000000000000000000000000000000000000000000000000                          0000000000                                                                  000244
102740645020001120000009075060952796600000064447              000000000000006444740000000000000000000000000902190917000006444700000000000000644474040518000000000650023704424  000000000000000000000000000000000000000000000000000000000000000000000000000000000000000000000000000000000000000000000                          0000000000                                                                  000245
102740645020001120000009075060952796600000064448              000000000000006444820000000000000000000000000902190917000006444800000000000000644482040618000000000650023704424  000000000000000000000000000000000000000000000000000000000000000000000000000000000000000000000000000000000000000000000                          0000000000                                                                  000246
102740645020001120000009075060952796600000064449              000000000000006444900000000000000000000000000902190917000006444900000000000000644490040718000000000650023704424  000000000000000000000000000000000000000000000000000000000000000000000000000000000000000000000000000000000000000000000                          0000000000                                                                  000247
102740645020001120000009075060952796600000064450              000000000000006445040000000000000000000000000902190917000006445000000000000000644504040818000000000650023704424  000000000000000000000000000000000000000000000000000000000000000000000000000000000000000000000000000000000000000000000                          0000000000                                                                  000248
102740645020001120000009075060952796600000064451              000000000000006445120000000000000000000000000902190917000006445100000000000000644512040918000000000650023704424  000000000000000000000000000000000000000000000000000000000000000000000000000000000000000000000000000000000000000000000                          0000000000                                                                  000249
